:1000000056C00DE00A95F1F700000895BC9ABB9820
:10001000F8DFBC98F6DF122FBB9AF3DF0894111FAC
:1000200001C0110F59F0BC9A18F40000BB9802C02F
:10003000BB9A00C0E6DFBC98E4DFF3CFBC9ABB9864
:10004000E0DFBC98B49BFECF8894B3990894D9DFC5
:10005000089540FFE3CF331F11E0BC9AD2DFBC9874
:10006000D0DF8894B3990894111FB8F7BC9A3795DC
:1000700010F4BB9801C0BB9AC4DFBC98B49BFECF00
:10008000C0DF0895BC9ABB9ABCDFBC98BADFBB98AE
:10009000B8DF0895332738BB37BB089511242224D5
:1000A0002A94F1F71A94E1F79A95D1F7089598E315
:1000B000F5DFB89AC09ABA9AC29AC19AEBDF2AE3DE
:1000C00040E0A9DF1DE2C5DF18E0C3DFDBDF2AE384
:1000D00040E0A1DF12E3BDDFD5DF2BE341E096DF97
:1000E0000894B7DFCFDFC098C198C29817FDC29AB5
:1000F00016FDC19A15FDC09A92E0D0DF19C0D7CF86
:100100001FEF2FEF1A95F1F71FEF2A95D9F72FEF71
:100110000A95C1F708950DE00A95F1F700000895DA
:1001200098E3BCDFB89AC09ABA9AC29AC19AB2DF71
:100130002AE340E070DF1DE28CDF18E08ADFA2DFF7
:100140002AE340E068DF12E384DF9CDF2BE341E039
:100150005DDF08947EDF96DFC098C198C29817FDD6
:10016000C29A2AE340E057DF1DE273DF18E071DF37
:1001700089DF2AE340E04FDF14E36BDF83DF2BE30B
:1001800041E044DF089465DF7DDF17FDC19A2AE373
:1001900040E041DF1DE25DDF18E05BDF73DF2AE353
:1001A00040E039DF16E355DF6DDF2BE341E02EDF62
:0E01B00008944FDF67DF17FDC09A05E0B9CF56
:00000001FF
