:100000005EC00DE00A95F1F700000895BC9ABB9818
:10001000F8DFBC98F6DF122FBB9AF3DF0894111FAC
:1000200001C0110F59F0BC9A18F40000BB9802C02F
:10003000BB9A00C0E6DFBC98E4DFF3CFBC9ABB9864
:10004000E0DFBC98B49BFECF8894B3990894D9DFC5
:10005000089540FFE3CF331F11E0BC9AD2DFBC9874
:10006000D0DF8894B3990894111FB8F7BC9A3795DC
:1000700010F4BB9801C0BB9AC4DFBC98B49BFECF00
:10008000C0DF0895BC9ABB9ABCDFBC98BADFBB98AE
:10009000B8DF0895332738BB37BB0895C09AC29A9A
:1000A0000D2E0A94F1F71A94D9F7C098C2981B2E16
:1000B0000A94F1F71A94E1F7CA9581F70895C19867
:1000C000A0E81A2EBFEFC3E3E9DFE4DF2AE340E054
:1000D000A2DF1DE2BEDF18E0BCDFD4DF9CDF1EE143
:1000E000B8DF1FE5B6DFCEDF2AE340E094DF12E39E
:1000F000B0DFC8DF2BE341E089DF0894AADFC2DF6D
:10010000A12FC098C198C298A7FDC29AA6FDC19A16
:06011000A5FDC09AE9CF35
:00000001FF
