:100000007EC00DE00A95F1F700000895BC9ABB98F8
:10001000F8DFBC98F6DF122FBB9AF3DF0894111FAC
:1000200001C0110F59F0BC9A18F40000BB9802C02F
:10003000BB9A00C0E6DFBC98E4DFF3CFBC9ABB9864
:10004000E0DFBC98B49BFECF8894B3990894D9DFC5
:10005000089540FFE3CF331F11E0BC9AD2DFBC9874
:10006000D0DF8894B3990894111FB8F7BC9A3795DC
:1000700010F4BB9801C0BB9AC4DFBC98B49BFECF00
:10008000C0DF0895BC9ABB9ABCDFBC98BADFBB98AE
:10009000B8DF0895332738BB37BB089511242224D5
:1000A0002A94F1F71A94E1F79A95D1F7089598E315
:1000B000F5DFB89AC09ABA9AC29AC19AEBDF2AE3DE
:1000C00040E0A9DF1DE2C5DF18E0C3DFDBDF2AE384
:1000D00040E0A1DF12E3BDDFD5DF2BE341E096DF97
:1000E0000894B7DFCFDFC098C198C29817FDC29AB5
:1000F00016FDC19A15FDC09A92E0D0DF08C098E3C2
:10010000CDDFB89AC09ABA9AC29AC19AC3DF2AE3DD
:1001100040E081DF1DE29DDF18E09BDFB3DF2AE3D3
:1001200040E079DF12E395DFADDF2BE341E06EDFE6
:1001300008948FDFA7DFC098C198C29817FDC29AB4
:0A01400016FDC19A15FDC09AE2CF2A
:00000001FF
